:100000000C942A000C9447000C9447000C94470071
:100010000C9447000C9447000C9447000C94470044
:100020000C9447000C945C030C9405050C94DE04BE
:100030000C9447000C9458050C947F050C944700D1
:100040000C9447000C9447000C9447000C94470014
:100050000C94470011241FBECFE5D8E0DEBFCDBF12
:1000600010E0A0E6B0E0ECEAFDE002C005900D92E1
:10007000A836B107D9F720E0A8E6B0E001C01D928C
:10008000A838B207E1F70E9457040C94D4060C94E8
:10009000000080EF8ABB8FE187BB88E784BB82E3E7
:1000A00081BB0895883000F5662381F0613009F046
:1000B00081C04BB321E030E0B90102C0660F771F69
:1000C0008A95E2F7CB01842B8BBB08954BB321E0DB
:1000D00030E0B90102C0660F771F8A95E2F7CB01C5
:1000E000809584238BBB0895803108F58850662362
:1000F00081F0613009F05EC048B321E030E0B90121
:1001000002C0660F771F8A95E2F7CB01842B88BB6C
:10011000089548B321E030E0B90102C0660F771FAF
:100120008A95E2F7CB018095842388BB08958831B6
:1001300000F58051662379F06130E1F545B321E0A7
:1001400030E0B90102C0660F771F8A95E2F7CB0154
:10015000842B85BB089545B321E030E0B90102C08E
:10016000660F771F8A95E2F7CB018095842385BBC4
:1001700008958032F8F48851662379F06130D1F423
:1001800042B321E030E0B90102C0660F771F8A95C3
:10019000E2F7CB01842B82BB089542B321E030E02B
:1001A000B90102C0660F771F8A95E2F7CB018095EF
:1001B000842382BB089561E083E10E94520060E0E5
:1001C00084E10E94520061E085E10E94520060E0FB
:1001D00086E10E94520061E08CE10E94520061E0E1
:1001E0008DE10E945200089560E08CE10E9452006F
:1001F00060E08DE10E94520060E083E10E945200C5
:1002000060E084E10E94520060E085E10E945200BB
:1002100060E086E10E945200089560E083E10E9460
:10022000520061E084E10E94520060E085E10E949A
:10023000520061E086E10E94520061E08CE10E9480
:10024000520061E08DE10E9452002FEF85EA9EE0AE
:10025000215080409040E1F700C000000E94F4006F
:10026000089560E08CE10E94520060E08DE10E9400
:1002700052002FEF8DE292E2215080409040E1F752
:1002800000C0000060E083E10E94520061E084E170
:100290000E94520061E085E10E94520060E086E128
:1002A0000E94520061E08CE10E94520061E08DE109
:1002B0000E9452002FEF8FE097E221508040904043
:1002C000E1F700C000000E94F400089560E08CE1B6
:1002D0000E94520060E08DE10E9452002FEF85EAFB
:1002E0009EE0215080409040E1F700C0000060E0B7
:1002F00083E10E94520060E084E10E94520061E0CC
:1003000085E10E94520060E086E10E94520061E0B7
:100310008CE10E94520061E08DE10E9452002FEFBB
:100320008FE097E2215080409040E1F700C000004C
:100330000E94F400089560E08CE10E94520060E0A9
:100340008DE10E9452002FEF85EA9EE0215080400F
:100350009040E1F700C0000061E083E10E9452009C
:1003600060E084E10E94520060E085E10E9452005A
:1003700060E086E10E94520061E08CE10E94520040
:1003800061E08DE10E9452002FEF8FE097E2215053
:1003900080409040E1F700C000000E94F400089502
:1003A00078940895CF93C82F60E08AE00E945200AD
:1003B00061E089E00E945200C4FD05C060E084E075
:1003C0000E94520004C061E084E00E945200C5FD1A
:1003D00005C060E085E00E94520004C061E085E055
:1003E0000E945200C6FD05C060E086E00E945200F7
:1003F00004C061E086E00E945200CC232CF060E053
:1004000087E00E94520004C061E087E00E94520031
:1004100061E08CE00E9452008FE99FE00197F1F7C4
:1004200000C0000060E08CE00E9452008FE99FE075
:100430000197F1F700C00000C0FD05C060E084E056
:100440000E94520004C061E084E00E945200C1FD9D
:1004500005C060E085E00E94520004C061E085E0D4
:100460000E945200C2FD05C060E086E00E9452007A
:1004700004C061E086E00E945200C3FD05C060E058
:1004800087E00E94520004C061E087E00E945200B1
:1004900061E08CE00E9452008FE99FE00197F1F744
:1004A00000C0000060E08CE00E9452008FE99FE0F5
:1004B0000197F1F700C00000CF910895CF93C82FA6
:1004C00060E08AE00E94520060E089E00E945200F1
:1004D000C4FD05C060E084E00E94520004C061E0F9
:1004E00084E00E945200C5FD05C060E085E00E94E6
:1004F000520004C061E085E00E945200C6FD05C0C4
:1005000060E086E00E94520004C061E086E00E9444
:100510005200CC232CF060E087E00E94520004C01F
:1005200061E087E00E94520061E08CE00E9452008E
:100530008FE99FE00197F1F700C0000060E08CE0D8
:100540000E9452008FE99FE00197F1F700C0000080
:10055000C0FD05C060E084E00E94520004C061E07C
:1005600084E00E945200C1FD05C060E085E00E9469
:10057000520004C061E085E00E945200C2FD05C047
:1005800060E086E00E94520004C061E086E00E94C4
:100590005200C3FD05C060E087E00E94520004C025
:1005A00061E087E00E94520061E08CE00E9452000E
:1005B0008FE99FE00197F1F700C0000060E08CE058
:1005C0000E9452008FE99FE00197F1F700C0000000
:1005D000CF9108952FE785EB91E021508040904026
:1005E000E1F700C0000083E30E945E028FE39FE119
:1005F0000197F1F700C0000082E30E945E028FE3E2
:100600009FE10197F1F700C0000088E20E945E02BE
:100610008FE39FE10197F1F700C000008CE00E949A
:100620005E028FE39FE10197F1F700C0000086E0D2
:100630000E945E028FE39FE10197F1F700C0000086
:1006400081E00E945E028FE39FE10197F1F700C015
:10065000000008950F931F93CF938C01C0E003C057
:100660000E94D201CF5FF801EC0FF11D8081811152
:10067000F7CFCF911F910F910895860F0E945E02D0
:100680000895CF93C0E008C06C2F80E80E943D031E
:1006900080E20E94D201CF5FC031B0F3C0E008C059
:1006A0006C2F80EC0E943D0380E20E94D201CF5F5C
:1006B000C031B0F3CF9108951F920F920FB60F92F1
:1006C00011248F939F938091680090916900019607
:1006D00090936900809368009F918F910F900FBE57
:1006E0000F901F90189561E088E00E94520025E36A
:1006F0002A95F1F7000060E088E00E9452001DBCDE
:100700001CBC81E48EBD80E288BF84E088BF08B64F
:1007100005FEFDCF1DBC1CBC81E08EBD80E288BF04
:1007200084E088BF109269001092680008B605FE48
:10073000FDCF66B577B5709377006093760080E063
:1007400090E00E941D062AE63CE349E654E40E943C
:10075000AB0560936E0070936F0080937000909370
:1007600071008FEF91EE24E0815090402040E1F73E
:1007700000C0000060916E0070916F008091700069
:100780009091710008958F929F92AF92BF92CF92F5
:10079000DF92EF92FF9288E10E94DC042FEF81EE5E
:1007A00094E0215080409040E1F700C000008DE0CF
:1007B0000E94DC040E94730360937C0070937D00B0
:1007C00080937E0090937F002FEF85EA9EE021507A
:1007D00080409040E1F700C0000082E20E94DC040B
:1007E0000E9473036093720070937300809374008F
:1007F000909375002FEF85EA9EE021508040904055
:10080000E1F700C0000088E10E94DC04C0907C0099
:10081000D0907D00E0907E00F0907F0020E030E0FE
:1008200040E251E4C701B6010E94A6058823ACF45A
:1008300060917200709173008091740090917500C6
:1008400020E030E040E251E40E94A60588232CF429
:100850000E940D010E94310121C080907200909091
:100860007300A0907400B0907500A5019401C701B9
:10087000B6010E94CF0618162CF40E940D010E94AA
:100880009B010CC0A5019401C701B6010E94A605F9
:10089000882324F40E940D010E946601FF90EF90CE
:1008A000DF90CF90BF90AF909F908F9008950E945F
:1008B00049000E94EA020E94B8040E94B2040E9409
:1008C0002C050E94D0010E945405C82F0E944103AC
:1008D00065E080E80E943D0380E690E00E942A03E4
:1008E000C136F1F70E94DB000E9473036093780029
:1008F0007093790080937A0090937B002FEF81EEC4
:1009000094E0215080409040E1F700C000000E9438
:1009100073036B017C0160936A0070936B0080939A
:100920006C0090936D0060917800709179008091D7
:100930007A0090917B0020E030E048EC51E40E9486
:10094000A60588236CF620E030E048EC51E4C701AE
:10095000B6010E94A60588231CF60E94F4000E949E
:10096000C303BECF89B39AB384609ABB89BB089591
:1009700083B7806483BF83B7886083BF83B7816098
:1009800083BF83B78D7F83BF83B7846083BF83B703
:100990008F7E83BF83B7806283BF89B78E7F89BF15
:1009A00089B78D7F89BF88B7816088BF88B782602B
:1009B00088BF12BE1CBE08958CBF08951F920F926F
:1009C0000FB60F9211242F933F934F935F936F9322
:1009D0007F938F939F93AF93BF93EF93FF93E09198
:1009E0008200F09183000995FF91EF91BF91AF9143
:1009F0009F918F917F916F915F914F913F912F9137
:100A00000F900FBE0F901F9018951F920F920FB668
:100A10000F9211242F933F934F935F936F937F9384
:100A20008F939F93AF93BF93EF93FF93E0918000D9
:100A3000F09181000995FF91EF91BF91AF919F9146
:100A40008F917F916F915F914F913F912F910F9077
:100A50000FBE0F901F9018958AB18B7F8AB980B511
:100A6000846080BD80B5826080BD80B58F7B80BD95
:100A700080B58F7D80BD80B58F7E80BD80B5877F3E
:100A800080BD80B58E7F80BD10BC87E689B98AB1F4
:100A900080618AB98AB188608AB98AB18F778AB948
:100AA0008AB18F7D8AB908955F9BFECF8CB108957E
:100AB0001F920F920FB60F9211242F933F934F93D3
:100AC0005F936F937F938F939F93AF93BF93EF93B6
:100AD000FF93E0918400F09185000995FF91EF91DB
:100AE000BF91AF919F918F917F916F915F914F9146
:100AF0003F912F910F900FBE0F901F9018951F924E
:100B00000F920FB60F9211242F933F934F935F9341
:100B10006F937F938F939F93AF93BF93EF93FF93C5
:100B2000E0918600F09187000995FF91EF91BF91C8
:100B3000AF919F918F917F916F915F914F913F9175
:100B40002F910F900FBE0F901F9018950E945A067C
:100B500008F481E008950E94BF050C9495060E9458
:100B60008E0658F00E94870640F029F45F3F29F076
:100B70000C947E0651110C94C9060C9484060E94B4
:100B8000A60668F39923B1F3552391F3951B550BF2
:100B9000BB27AA2762177307840738F09F5F5F4F50
:100BA000220F331F441FAA1FA9F335D00E2E3AF08F
:100BB000E0E832D091505040E695001CCAF72BD0A7
:100BC000FE2F29D0660F771F881FBB1F26173707F8
:100BD0004807AB07B0E809F0BB0B802DBF01FF272A
:100BE00093585F4F3AF09E3F510578F00C947E0683
:100BF0000C94C9065F3FE4F3983ED4F3869577954D
:100C00006795B795F7959F5FC9F7880F911D9695E2
:100C1000879597F90895E1E0660F771F881FBB1F3E
:100C2000621773078407BA0720F0621B730B840BEB
:100C3000BA0BEE1F88F7E0950895E89409C097FB7A
:100C40003EF490958095709561957F4F8F4F9F4FA3
:100C50009923A9F0F92F96E9BB279395F6958795E7
:100C600077956795B795F111F8CFFAF4BB0F11F4AA
:100C700060FF1BC06F5F7F4F8F4F9F4F16C0882351
:100C800011F096E911C0772321F09EE8872F762F87
:100C900005C0662371F096E8862F70E060E02AF0C8
:100CA0009A95660F771F881FDAF7880F96958795B4
:100CB00097F90895990F0008550FAA0BE0E8FEEF89
:100CC00016161706E807F907C0F012161306E40710
:100CD000F50798F0621B730B840B950B39F40A2609
:100CE00061F0232B242B252B21F408950A2609F4E7
:100CF000A140A6958FEF811D811D089597F99F67EB
:100D000080E870E060E008959FEF80EC0895002493
:100D10000A941616170618060906089500240A9460
:100D200012161306140605060895092E0394000CE6
:100D300011F4882352F0BB0F40F4BF2B11F460FF75
:100D400004C06F5F7F4F8F4F9F4F089557FD90589E
:100D5000440F551F59F05F3F71F04795880F97FB7F
:100D6000991F61F09F3F79F0879508951216130639
:100D70001406551FF2CF4695F1DF08C01616170668
:100D80001806991FF1CF869571056105089408959D
:100D9000E894BB2766277727CB0197F908950E942F
:0C0DA0005A0608F48FEF0895F894FFCF76
:080DAC004D41474E414D00008E
:00000001FF
